:020000040800F2
:100000000050002021020008092300080D230008E9
:100010001123000815230008192300080000000020
:100020000000000000000000000000001D23000888
:1000300021230008000000002523000829230008D0
:1000400025030008250300082503000825030008F0
:1000500025030008250300082503000825030008E0
:1000600025030008250300082503000825030008D0
:1000700025030008250300082503000825030008C0
:1000800025030008250300082503000825030008B0
:1000900025030008250300082503000825030008A0
:1000A0002503000825030008250300082503000890
:1000B0002503000825030008250300082503000880
:1000C000250300082503000825030008C5230008B0
:1000D00025030008752300082503000825030008F0
:1000E0002503000825030008250300080000000080
:1000F0000000000000000000000000000000000000
:1001000000000000000000005FF808F100B583B0B7
:1001100001F0D4F8304B314A1360314A1360314B4F
:10012000314A03E011681960043304322F498B42CD
:10013000F8D32A4B1A682E4B9A4204D1284B1A68DE
:100140002C4B9A4200D0FEE7234B2B4A13602B4ADC
:1001500013602B4B02E000221A600433294A9342B9
:10016000F9D3254B1B6813B9244B1B6803B1FEE779
:1001700001F0B0F8694601A801F03EF8224C234B8B
:100180001C1BA410002504E01F4B53F82530984792
:100190000135AC42F8DC1E4C1E4B1C1BA410002584
:1001A00004E01B4B53F8253098470135AC42F8DC8E
:1001B0000099019802F054F80546174C174B1C1B88
:1001C000A41004E0013C144B53F824309847002C51
:1001D000F8DC284600F0E2FFBABADECA00000020D0
:1001E000AC00002000000020E8330008B000002030
:1001F0007856341232547698B00000205C02002009
:10020000B0000020600200205003000850030008E6
:100210005003000850030008500300085003000872
:1002200008B5FFF773FF00BF00BEFEE71EF0040F26
:100230000CBFEFF30880EFF309807146364A104790
:100240002DE9F04182B004468846084B5E6B9F6BF7
:100250009D6A074800F0E2FFCDF800803B46324639
:100260002946204601F03AF800BEFEE700ED00E026
:100270006831000800BEFEE71EF0040F0CBFEFF36C
:100280000880EFF309807146244A10472DE9F041B8
:1002900082B004468846084B5E6B9F6B9D6A074898
:1002A00000F0BCFFCDF800803B4632462946204690
:1002B00001F014F800BEFEE700ED00E07831000820
:1002C0001EF0040F0CBFEFF30880EFF309807146B6
:1002D000134A10472DE9F04182B004468846084B86
:1002E0005E6B9F6B9D6A074800F098FFCDF8008019
:1002F0003B4632462946204600F0F0FF00BEFEE7AE
:1003000000ED00E08431000800BEFEE700BEFEE71D
:1003100000BEFEE770470000410200088D020008A1
:08032000D502000800BEFEE753
:10032800E833000800000020B0000020E83300088F
:100338000000000000000000B00000206002002063
:080348000000000000000000AD
:1003500010B50446C378012B03D975211F4800F05E
:1003600053FF63780F2B03D976211C4800F04CFF14
:10037000A3780F2B03D97721184800F045FFE378C5
:10038000FBB1174BDB68DB43C3F30223C3F104016A
:100390000F22DA40637803FA01F1A37813400B438C
:1003A0001B012278DBB20F490A4482F8003323781C
:1003B000580903F01F03012202FA03F341F8203029
:1003C00010BD23785A0903F01F03012101FA03F33A
:1003D0002032044941F8223010BD00BF802E0008B1
:1003E00000ED00E000E100E038B505460C464D4B5D
:1003F00098420BD003F58063984207D003F5A053D1
:10040000984203D0E521484800F0FEFE2368F3B18E
:10041000B3F5803F1BD0B3F5003F18D0B3F5403F94
:1004200015D0B3F5802F12D0B3F5A02F0FD0B3F5B0
:10043000C02F0CD0B3F5E02F09D0B3F5002F06D0B4
:10044000B3F5102F03D0E621374800F0DDFE237905
:10045000012B03D9E721344800F0D6FE6379012B44
:1004600003D9E821304800F0CFFEA36843B3B3F5C9
:10047000003F25D0B3F5802F22D0B3F5C02F1FD079
:10048000B3F5002F1CD0B3F5202F19D0B3F5402FB2
:1004900016D0B3F5602F13D093B1B3F5003F0FD052
:1004A000B3F5C02F0CD0B3F5002F09D0B3F5202F32
:1004B00006D0B3F5402F03D0E9211B4800F0A4FE7D
:1004C000E36833B1B3F5006F03D0EA21164800F0BA
:1004D0009BFE237C013BDBB20F2B03D9EB2112489F
:1004E00000F092FE6B6823F4702222F4807223687D
:1004F000217943EA012313436B60AB680B49194030
:10050000E268A3681A43637942EA43030B43AB6092
:10051000EB6A23F47002237C013BDBB242EA035313
:10052000EB6238BD00240140A82E0008FDF7F1FF62
:1005300038B504460D46114B98420CD003F5806344
:10054000984208D003F5A053984204D04FF49A7112
:100550000B4800F059FE012D04D940F2351108482E
:1005600000F052FE25B1A36843F00103A36038BD3B
:10057000A36823F00103A36038BD00BF002401403D
:10058000A82E000810B504460A4B98420CD003F57B
:100590008063984208D003F5A053984204D04FF4EA
:1005A000C271054800F030FEA36843F00803A36061
:1005B00010BD00BF00240140A82E000810B504465D
:1005C0000B4B98420CD003F58063984208D003F59A
:1005D000A053984204D04FF4C971064800F014FEAD
:1005E000A36813F0080F01D0012010BD002010BD3A
:1005F00000240140A82E000810B504460A4B98427A
:100600000CD003F58063984208D003F5A0539842BC
:1006100004D04FF4D571054800F0F6FDA36843F00F
:100620000403A36010BD00BF00240140A82E0008F1
:1006300010B504460B4B98420CD003F580639842EA
:1006400008D003F5A053984204D04FF4DC7106485B
:1006500000F0DAFDA36813F0040F01D0012010BDF3
:10066000002010BD00240140A82E0008F8B5054662
:100670000E4614461F46364B98420CD003F5806355
:10068000984208D003F5A053984204D04FF4167155
:10069000304800F0B9FD112E04D940F259212D48FF
:1006A00000F0B2FD631EDBB20F2B04D940F25A21D9
:1006B000284800F0A9FD072F04D940F25B21254806
:1006C00000F0A2FD092E0CD9E968A6F10A0303EB9C
:1006D000430307229A4021EA02029F401743EF603A
:1006E00009E02A6906EB460107238B4022EA03034F
:1006F0008F401F432F61062C0CD86B6B013C04EB21
:1007000084041F21A14023EA010106FA04F40C43EA
:100710006C63F8BD0C2C0CD82B6B073C04EB8404E9
:100720001F21A14023EA010106FA04F421432963B1
:10073000F8BDEB6AA4F10D0101EB81011F248C408F
:1007400023EA040406FA01F10C43EC62F8BD00BF91
:1007500000240140A82E000810B50446012804D941
:100760004FF49361074800F04FFD2CB1064A93689F
:1007700043F40003936010BD034A936823F400031D
:10078000936010BDA82E000800240140F8B505466E
:100790000C46464B98421BD003F58063984217D015
:1007A00003F58063984213D003F5806398420FD01D
:1007B00003F5806398420BD003F58063984207D01D
:1007C00003F58063984203D0B221394800F01CFD44
:1007D000E3788BB1042B0FD0282B0DD0482B0BD0F6
:1007E000142B09D0102B07D01C2B05D0182B03D0AD
:1007F000B3212F4800F008FD23881BB9B4212C48F1
:1008000000F002FDE37803F00F06304613F0100FFE
:100810000AD0A378013BDBB2022B03D9BB212448C9
:1008200000F0F2FCA07830432378E3B12E68002377
:1008300016E001229A40218832EA01010FD1990085
:100840000F278F4026EA070600FA01F10E43E178F0
:10085000282901D16A6102E0482900D12A610133C7
:10086000072BE6D92E602388FF2B1ED96E68002344
:1008700018E003F1080101228A40218832EA0101CF
:100880000FD199000F278F4026EA070600FA01F1E1
:100890000E43E178282900D16A61E178482900D126
:1008A0002A610133072BE4D96E60F8BD00080140CE
:1008B000D82E000838B504460D462A4B98421CD065
:1008C00003F58063984218D003F58063984214D0F2
:1008D00003F58063984210D003F5806398420CD0F2
:1008E00003F58063984208D003F58063984204D0F2
:1008F0004FF48F711C4800F087FC6B1E9BB2012BDC
:1009000028D9042D26D0082D24D0102D22D0202D1A
:1009100020D0402D1ED0802D1CD0B5F5807F19D061
:10092000B5F5007F16D0B5F5806F13D0B5F5006F23
:1009300010D0B5F5805F0DD0B5F5005F0AD0B5F5E4
:10094000804F07D0B5F5004F04D040F21F11064884
:1009500000F05AFCA3681D4201D0012038BD0020E0
:1009600038BD00BF00080140D82E000838B5044645
:100970000D46144B98421CD003F58063984218D062
:1009800003F58063984214D003F58063984210D039
:1009900003F5806398420CD003F58063984208D039
:1009A00003F58063984204D040F26911064800F0D4
:1009B0002BFC25B94FF4B571034800F025FC2561E7
:1009C00038BD00BF00080140D82E000838B50446E5
:1009D0000D46144B98421CD003F58063984218D002
:1009E00003F58063984214D003F58063984210D0D9
:1009F00003F5806398420CD003F58063984208D0D9
:100A000003F58063984204D040F27911064800F063
:100A1000FBFB25B94FF4BD71034800F0F5FB6561A0
:100A200038BD00BF00080140D82E000810B4294B83
:100A30005B6803F00C03042B05D0082B06D013BB16
:100A4000254B036021E0244B03601EE0214A5368DC
:100A50005268C3F38343023312F4803F04D11F4A28
:100A600002FB03F3036010E01A4A526812F4003FDD
:100A700004D01A4A02FB03F3036006E0164A02FBA5
:100A800003F3036001E0144B036012494B68C3F3A6
:100A90000313134CE35CDAB20368D34043604A6843
:100AA000C2F30222A25CD2B223FA02F282604A6846
:100AB000C2F3C222A25CD2B2D340C3604A68C2F37E
:100AC000813208498A5CD2B2B3FBF2F3036110BCF5
:100AD000704700BF0010024000127A0000093D007C
:100AE000080000200400002038B504460D460E4BD7
:100AF000034003B920B940F24A410C4800F084FB9E
:100B0000012D04D940F24B41084800F07DFB25B18E
:100B1000074A93691C43946138BD054A936923EAE7
:100B20000404946138BD00BF0200C0FF0C2F000810
:100B3000001002402DE9F04105460C46464B984214
:100B40000BD0A3F57843984207D003F58063984211
:100B500003D0A321414800F057FB238863B1B3F5CC
:100B6000806F09D0B3F5004F06D0B3F5404F03D0E6
:100B7000A6213A4800F048FB6388B3F5827F04D091
:100B80001BB1A721354800F03FFBA388B3F5006FE8
:100B900004D01BB1A821314800F036FBE3882BB10B
:100BA000022B03D0A9212D4800F02EFB2389012B15
:100BB00003D9AA21294800F027FB6389B3F5007FF8
:100BC00004D01BB1AB21254800F01EFBA3898BB1DB
:100BD000082B0FD0102B0DD0182B0BD0202B09D0A9
:100BE000282B07D0302B05D0382B03D0AC211B4845
:100BF00000F00AFBE3892BB1802B03D0AD2117480D
:100C000000F002FB238A1BB9AE21144800F0FCFA65
:100C10002B8803F4415720886688A188B4F80680A1
:100C20002289B4F80AC0A389B4F80EE0304308431F
:100C300048EA000111434CEA01021A434EEA02035A
:100C40003B432B80AB8B9BB223F400639BB2AB8303
:100C5000238A2B82BDE8F081003001403C2F000840
:100C600038B504460D46124B98420CD0A3F5784394
:100C7000984208D003F58063984204D040F2B7113F
:100C80000C4800F0C1FA012D04D94FF4DC71094879
:100C900000F0BAFA2DB123889BB243F040032380C1
:100CA00038BD23889BB223F040039BB2238038BD1C
:100CB000003001403C2F000838B504460D46164B65
:100CC00098420CD0A3F57843984208D003F580638E
:100CD000984204D04FF41771104800F095FAB5F51A
:100CE000807F08D04FF6FF639D4204D040F25D2123
:100CF0000A4800F089FA4FF6FF639D4205D0238829
:100D00009BB243F48073238038BD23889BB223F4C5
:100D100080739BB2238038BD003001403C2F000817
:100D200038B505460C461B4B98420CD0A3F57843CA
:100D3000984208D003F58063984204D040F25731BE
:100D4000154800F061FA602C0ED0712C0CD0532C99
:100D50000AD0542C08D0552C06D0562C04D04FF471
:100D600056710D4800F050FA04F00F01012303FA08
:100D700001F1240903FA04F4AB889BB223402A89C9
:100D800092B2114202D01BB9002038BD002038BDFC
:100D9000012038BD003001403C2F000830B587B03D
:100DA00004460D46644B984213D0A3F57443984211
:100DB0000FD003F5806398420BD003F5806398420F
:100DC00007D003F58063984203D0B8215B4800F058
:100DD0001BFA2B68013B5A4A934203D9B921574861
:100DE00000F012FAAB8833B1B3F5805F03D0BA21BB
:100DF000524800F009FAEB8863B1B3F5805F09D07F
:100E0000B3F5005F06D0B3F5405F03D0BB214B487C
:100E100000F0FAF92B894BB1B3F5806F06D0B3F52A
:100E2000C06F03D0BC21454800F0EEF96A8922F07A
:100E30000C039BB203B91AB9BD21404800F0E4F994
:100E4000AB8963B1B3F5807F09D0B3F5007F06D0DD
:100E5000B3F5407F03D0BE21384800F0D5F9AB8907
:100E600073B1354B9C420BD0A3F574439C4207D021
:100E700003F580639C4203D0C221304800F0C4F9DE
:100E8000238A9BB2EA8823F4405313432382A38925
:100E90009BB2AA88298968890A43024323F4B05384
:100EA00023F00C031343A381A38A9BB2AA8923F4E2
:100EB00040731343A38201A8FFF7B8FD1E4B9C4269
:100EC00001D1049A00E0039AA38913F4004F08D0DB
:100ED00002EB820202EB820229684900B2FBF1F1C7
:100EE00007E002EB820202EB820229688900B2FB72
:100EF000F1F1144BA3FB01235B091B011A096420C8
:100F000000FB1212A18911F4004F08D0D200323236
:100F10000C49A1FB0212C2F342121A4307E012016C
:100F200032320849A1FB0212C2F343121A4392B2B1
:100F3000228107B030BD00BF003801406C2F00088F
:100F40001FAA44001F85EB5138B504460D46164BC9
:100F5000984214D0A3F57443984210D003F58063EF
:100F600098420CD003F58063984208D003F5806363
:100F7000984204D04FF4B1710C4800F045F9012DAE
:100F800004D940F26311094800F03EF92DB1A3895C
:100F90009BB243F40053A38138BDA3899BB223F4D1
:100FA00000539BB2A38138BD003801406C2F00086C
:100FB00070B504460D461646364B984214D0A3F53C
:100FC0007443984210D003F5806398420CD003F527
:100FD0008063984208D003F58063984204D040F2C1
:100FE00089112D4800F010F9282D1ED040F22773EA
:100FF0009D421AD040F226639D4216D040F22553FE
:101000009D4212D040F224439D420ED040F646034A
:101010009D420AD040F66A139D4206D0602D04D04E
:101020004FF4C5711C4800F0EFF8012E04D940F2CE
:101030008B11194800F0E8F840F66A139D420FD171
:10104000144B9C420CD0A3F574439C4208D003F58A
:1010500080639C4204D040F28F110F4800F0D4F816
:10106000C5F3421205F01F05012303FA05F59A4264
:1010700001D10C3404E0022A01D1103400E0143410
:101080001EB123681D43256070BD236823EA050552
:10109000256070BD003801406C2F000838B505464A
:1010A0000C463C4B984214D0A3F57443984210D0A0
:1010B00003F5806398420CD003F58063984208D012
:1010C00003F58063984204D040F2D931324800F0F1
:1010D0009BF8282C25D040F227739C4221D040F267
:1010E00026639C421DD040F225539C4219D040F209
:1010F00024439C4215D040F646039C4211D040F652
:101100006A139C420DD0B4F5587F0AD0B4F5187F0D
:1011100007D0B4F5B07F04D040F2DA311E4800F0B9
:1011200073F840F66A139C420FD11A4B9D420CD0C3
:10113000A3F574439D4208D003F580639D4204D01B
:1011400040F2DE31144800F05FF8C4F3421204F0BC
:101150001F0101238B40012A03D1AA8992B21340B7
:1011600008E0022A03D12A8A92B2134002E0AA8A36
:1011700092B21340240A012202FA04F42A8892B29D
:10118000144013B11CB9002038BD002038BD012027
:1011900038BD00BF003801406C2F0008FEE700BFDB
:1011A00008B5034800F052F80120FFF7F7FF00BF31
:1011B000A02F000808B50D4B1B6813B90C4A0B4B48
:1011C0001A600A4B1A68C31C23F00303134409492D
:1011D0008B4206D901F04CF90C2303604FF0FF302D
:1011E00008BD02490B60104608BD00BFB4000020D6
:1011F00060020020004C002001230360014B0B60C3
:10120000704700BF1800002008B50A460146024892
:1012100000F004F8FFF7C4FFF42F00080FB400B586
:1012200083B004AB53F8042B01938021064801F0EE
:1012300023FA002803DD0146034800F03BF803B021
:101240005DF804EB04B07047BC00002010B5044604
:1012500001F04EF90146204600F02CF80121024829
:1012600000F028F810BD00BFE430000810B40022E0
:101270001AE04FF06043D3F8803E13F0010F06D020
:101280004FF06043D3F8003E13F0010F01D1104638
:101290000DE04FF060431B68002BFAD004784FF04C
:1012A00060431C70013201308A42E2D3084610BC10
:1012B000704700BF08B5FFF7D9FF08BD08B500F0BB
:1012C000EBF8024B024A9A6008BD00BF00ED00E057
:1012D0000000000808B500F007F908BDF8B504469D
:1012E0000D4617461E462648FFF798FF21682548F9
:1012F000FFF794FF61682448FFF790FFA168234837
:10130000FFF78CFFE1682248FFF788FF2169214839
:10131000FFF784FF61692048FFF780FFA1691F483C
:10132000FFF77CFFE1691E48FFF778FF1D48FFF7D4
:1013300075FF29461C48FFF771FF1C4CE16A1C48E9
:10134000FFF76CFF216B1B48FFF768FFE16B1A4842
:10135000FFF764FF15F0800F03D039461748FFF7F9
:101360005DFF15F4004F03D031461548FFF756FFD7
:101370001448FFF753FF06991348FFF74FFFF8BDD6
:101380004C3000085C3000086C3000087C300008ED
:101390008C3000089C300008AC300008BC300008DD
:1013A000CC300008DC300008E830000800ED00E038
:1013B000F83000080831000818310008283100080A
:1013C00038310008483100085031000882B000234D
:1013D000019300932C4A136843F4803313602A4B23
:1013E0001B6803F400330093019B01330193009BBE
:1013F0001BB9019BB3F5A06FF1D1234B1B6813F40C
:10140000003F02D00123009301E000230093009BE2
:10141000012B36D11D4B1A6842F010021A601A686F
:1014200022F003021A601A6842F002021A60A3F561
:1014300080535A685A605A685A605A6842F4806207
:101440005A605A6822F47C125A605A6842F4E812D0
:101450005A601A6842F080721A600B4B1B6813F0D6
:10146000007FFAD0084B5A6822F003025A605A688B
:1014700042F002025A60044B5B6803F00C03082B35
:10148000F9D102B0704700BF0010024000200240B6
:1014900008B5FFF79BFF08BD08B5104B1A6842F06E
:1014A00001021A6059680E4A0A405A601A6822F00E
:1014B000847222F480321A601A6822F480221A6040
:1014C0005A6822F4FE025A604FF41F029A60FFF736
:1014D000DFFF4FF00062034B9A6008BD001002402E
:1014E0000000FFF800ED00E01F4B5B6803F00C0309
:1014F000042B06D0082B08D03BBB1C4A1C4B1A609F
:1015000026E01A4A1A4B1A6022E0174A53685268BA
:10151000C3F38343023312F4803F05D1154A02FB23
:1015200003F3134A136013E00F4A526812F4003FAA
:1015300005D0104A02FB03F30D4A136008E00B4A82
:1015400002FB03F30A4A136002E0084A084B1A60E0
:10155000054B5B68C3F30313074AD35CDAB2044953
:101560000B68D3400B6070470010024000127A00F5
:101570003000002000093D0020000020044B09221B
:101580005A60F021034A82F8231003221A60704740
:1015900010E000E000ED00E0034B1860024B1B6818
:1015A000002BFBDC704700BFBC0100204FF47A73B6
:1015B00003FB00F0034B1860024B1B68002BFBDCA5
:1015C000704700BFA801002000B583B001211020A2
:1015D000FFF78AFA4FF40053ADF8043014238DF866
:1015E000073003238DF8063001A90348FFF7CEF832
:1015F00003B05DF804FB00BF0010014030B587B0B8
:10160000054601214FF48040FFF76EFA01210420C6
:10161000FFF76AFA4FF40073ADF8143018238DF811
:10162000173003238DF816301D4C05A92046FFF70F
:10163000ADF84FF48063ADF8143004238DF8173003
:1016400005A92046FFF7A2F801950024ADF808404F
:10165000ADF80A40ADF80C40ADF810400C23ADF8E1
:101660000E30104D01A92846FFF798FB012240F2E9
:1016700025512846FFF79CFC25238DF800308DF876
:1016800001408DF8024001248DF803406846FEF7C2
:101690005FFE21462846FFF757FC07B030BD00BF6C
:1016A000000801400038014090F900205AB1064B73
:1016B0001B8803F040039BB2002BF8D0D2B2024B40
:1016C0009A800130F0E770470038014090F900201F
:1016D0005AB1104B1B8803F040039BB2002BF8D08B
:1016E000D2B20C4B9A800130F0E70A4B1B8803F012
:1016F00040039BB2002BF8D00D22064B9A80054B7D
:101700001B8803F040039BB2002BF8D00A22014B48
:101710009A807047003801400F4B1B8803F040034C
:101720009BB2002BF8D0C0B20B4B98800A4B1B88A1
:1017300003F040039BB2002BF8D00D22064B9A8099
:10174000054B1B8803F040039BB2002BF8D00A2204
:10175000014B9A80704700BF00380140014B186868
:10176000704700BF3C0100200D4B1B68A3B110B4B3
:101770000C4B187840B20023094A1268934206DAEB
:10178000591C084C625C52B2E2540B46F4E7044A1E
:101790001368013B136001E00020704710BC7047E4
:1017A0003C0100204001002030B587B001214FF4FA
:1017B0000070FFF799F9002301938DF808308DF838
:1017C00009304FF460220392049301258DF81450E0
:1017D000114C01A92046FEF707FE2846FEF7BCFF84
:1017E00004232A4610212046FEF740FF29462046C2
:1017F000FEF79EFE2046FEF7C5FE0748FEF7DEFE1A
:101800000028FAD10448FEF7F7FE0348FEF710FF60
:101810000028FAD107B030BD00240140024AD36845
:1018200083F40053D36070470010014010B586B0B8
:1018300001210420FFF758F9E023ADF814301823F4
:101840008DF8173003238DF8163005A91848FEF7D8
:101850009DFF01214FF48050FFF746F90023ADF8BA
:1018600000304FF48272ADF80220ADF80430ADF8CC
:101870000630ADF808304FF40072ADF80A20382277
:10188000ADF80C20ADF80E300723ADF81030094C40
:1018900069462046FFF74EF94FF480712046FFF766
:1018A0000BFA01212046FFF7DBF906B010BD00BF9F
:1018B0000008014000300140084B1B8903F002037F
:1018C0009BB2002BF8D0054B9881044B1B8913F079
:1018D000010FFAD0014B9889C0B270470030014027
:1018E00010B50446012804D940F246310948FFF7F3
:1018F0008BFC3CB101210848FFF738F88220FFF744
:101900004BFE10BD01210448FFF760F80A20FFF7E5
:1019100043FE10BDD0310008000C014010B5044654
:10192000012804D94FF455710948FFF76DFC3CB10B
:101930000320FFF731FE02210648FFF717F810BD1C
:1019400002210448FFF742F80320FFF725FE10BDEF
:10195000D0310008000C014030B583B001210820CF
:10196000FFF7C2F80324ADF8044010238DF80730C8
:101970008DF806400B4D01A92846FEF707FF4FF4EE
:101980008063ADF8043004238DF807308DF80640ED
:101990000DEB03012846FEF7F9FEFFF747FF03B002
:1019A00030BD00BF000C014010B504460020FFF719
:1019B000B5FF04F01F00FFF77FFFFF20FFF77CFF5C
:1019C00004460120FFF7AAFF204610BD38B50446A3
:1019D0000D460020FFF7A2FF04F01F0040F020009A
:1019E000FFF76AFF04462846FFF766FF0120FFF76E
:1019F00095FF204638BD00BF10B504460620FFF70E
:101A0000D3FF0146032C13D8DFE804F002050A0FC8
:101A100000F0F9010CE000F0FB0141F0020107E0E9
:101A200000F0FD0141F0040102E040F00601C9B2FE
:101A30000620FFF7CBFF10BD38B5012826D10020C6
:101A4000FFF7B2FF0446194D02461949284600F037
:101A50001DFD2846FFF73AFE44F00104E4B221469A
:101A60000020FFF7B3FF70210720FFF7AFFF012031
:101A7000FFF736FF22460F49284600F007FD2846AB
:101A8000FFF724FE02220C4B1A7038BD0020FFF72E
:101A900027FF064C0949204600F0F8FC2046FFF7D6
:101AA00015FE0122044B1A7038BD00BF140200203D
:101AB000E0310008EC310008EE010020F8310008A8
:101AC00038B501281BD10020FFF76EFF00F0FE059E
:101AD00029460020FFF77AFF0E4C2A460E49204681
:101AE00000F0D4FC2046FFF7F1FD0C48FFF7EEFDB7
:101AF0000120FFF7F5FE0322094B1A7038BD0020C4
:101B0000FFF7EEFE8220FFF747FD0122044B1A701B
:101B100038BD00BF14020020043200081032000853
:101B2000EE010020F8B50F4615460A30C4B2002079
:101B3000FFF7F4FE04F01F0040F02000FFF7BCFEAA
:101B400000242E46AC4204DA385DFFF7B5FE0134BE
:101B5000F7E70120FFF7E2FE0024B4420ADA074D5E
:101B60003A5D0749284600F091FC2846FFF79CFDA6
:101B70000134F2E70348FFF7A9FDF8BD1402002085
:101B80001832000848300008F8B50F4615460A30EC
:101B9000C4B20020FFF7C2FE04F01F00FFF78CFE66
:101BA00000242E46AC4205DAFF20FFF785FE3855AB
:101BB0000134F6E70120FFF7B1FE0024B4420ADA4F
:101BC000074D3A5D0749284600F060FC2846FFF7BC
:101BD0006BFD0134F2E70448FFF778FDF8BD00BF64
:101BE00014020020183200084830000870B506467C
:101BF0000D460020FFF792FE3020FFF75DFE002427
:101C0000AC4204DA305DFFF757FE0134F8E70120FB
:101C1000FFF784FE70BD00BFF8B506460D460020F4
:101C2000FFF77CFEA020FFF747FE07460024AC42EA
:101C300004DA305DFFF740FE0134F8E70120FFF7DA
:101C40006DFE3846F8BD00BFF8B506460D460020CB
:101C5000FFF764FE6120FFF72FFE07460024AC4229
:101C600005DAFF20FFF728FE30550134F7E70120A1
:101C7000FFF754FE3846F8BD08B50020FFF74EFECA
:101C8000E220FFF719FE0120FFF748FE08BD00BF64
:101C900008B50020FFF742FEE120FFF70DFE01200E
:101CA000FFF73CFE08BD00BF10B504460020FFF75B
:101CB0007BFE012C03D140F00801C9B201E000F025
:101CC000F7010020FFF782FE10BD00BF08B5062017
:101CD000FFF76AFE00F0F60141F020010620FFF751
:101CE00075FE08BD38B505460C460220FFF75CFEC0
:101CF000012C04D10121A9400143C9B204E0012112
:101D0000A94020EA0101C9B20220FFF75FFE38BDF9
:101D100008B50020FFF748FE40F00201C9B20020DC
:101D2000FFF754FE0122034B1A700520FFF73EFC1B
:101D300008BD00BFEE01002008B50020FFF7D0FD70
:101D40000020FFF731FE00F0FD010020FFF73EFE0E
:101D50000022014B1A7008BDEE01002008B51130B9
:101D6000C0B2FFF733FE08BD08B500210120FFF720
:101D70002DFE00210420FFF729FE08BD08B54FF411
:101D800080610648FEF796FD18B90120044B1870D3
:101D900008BD0020024B187008BD00BF000C0140B8
:101DA000EF01002010B50720FFF7FEFD10F0400FF7
:101DB00009D004460A48FFF789FC44F04001C9B243
:101DC0000720FFF703FE1720FFF7EEFD10F0010FCD
:101DD00004D10448FFF77AFC012010BD002010BD9B
:101DE0001C3200082432000808B508210020FFF743
:101DF000EDFD0E210620FFF7E9FD08BD10B5FFF748
:101E000015FDFFF7A9FD0120FFF788FD0020FFF772
:101E100067FDFFF77DFF0020FFF746FFFFF7A4FFF8
:101E2000FFF754FF0320FFF7E7FD02210020FFF733
:101E300095FF02210120FFF791FF094C0522214661
:101E40000020FFF76FFE05212046FFF7CFFE01219E
:101E50000020FFF747FF00210120FFF743FF10BDDF
:101E60003400002008B502210020FFF7AFFD00215B
:101E70000520FFF7ABFD9F210620FFF7A7FD0120FE
:101E8000FFF72EFD08BD00BF10B5154C02212046FE
:101E9000FFF7C2FE63785A2B05D8217801312170F3
:101EA0000133637004E00E4B41221A7042225A70D3
:101EB0000020FFF7C1FD0120FFF702FE084A094C90
:101EC000537812780849204600F0E0FA2046FFF7E0
:101ED000FDFB0020FFF7F4FD0120FFF7ADFD10BD75
:101EE0003C000020140200203832000838B5FFF70B
:101EF00035FC002836DDFFF737FC324B18702428FC
:101F000005D10022304B1A700122304B1A702F4B32
:101F10001B781BB12C4B1B782D4AD0542A4A1378BE
:101F20000133DBB213701D2B07D91E220021284874
:101F300000F0A4FA0022244B1A70224B93F90030CF
:101F40003B2BD4D1214B1B78002BD0D000221F4B30
:101F50001A701D4B18781F4908701A7001221E4B09
:101F60001A70C4E71C4B1B7853B300221A4B1A702B
:101F7000174C2421204600F0ADFA05463B212046AF
:101F800000F0A8FA04469DB1401B0123C2B293425F
:101F900005DC5A1EEC5611498C540133F6E71E221B
:101FA00000210B4800F06AFA01220D4B1A7038BD6F
:101FB00095F90000FFF7B0FB94F90000FFF7ACFBC8
:101FC00038BD00BFEC010020B5010020B6010020A3
:101FD000F0010020C8010020B7010020D00100203E
:101FE000ED010020884B1B78002B00F00C8170B5B0
:101FF0000022854B1A70854B93F902203A2A2BD187
:1020000093F906303B2B27D1804C94F9003080485F
:10201000037094F9013043700025857000F024FAB4
:10202000C6B294F903307B48037094F904304370CE
:1020300094F905308370C57000F016FAC1B23046CD
:10204000FFF7C4FC744C02467449204600F01EFAA7
:102050002046FFF73BFBCAE06C4B93F90030722B34
:102060000AD16A4991F901103B2905D105226C4931
:102070000020FFF789FDBAE0772B0AD1634991F977
:1020800001103B2905D1052266490020FFF74AFDD2
:10209000ADE0632B17D15D4991F901103A2912D1B6
:1020A0005A4991F903103B290DD1312A05D1FFF787
:1020B000D9FE5D48FFF70AFB99E0FFF795FE5B4804
:1020C000FFF704FB93E0742B07D1504991F90110FD
:1020D0003B2902D1FFF7D8FE89E0742B0FD14B4981
:1020E00091F901103A290AD1312A08D1474991F9C9
:1020F00003103B2903D101224D4B1A7077E0742B5A
:102100000FD1424991F901103A290AD1302A08D158
:102110003E4991F903103B2903D10022444B1A7028
:1021200065E0702B09D1394991F90110752904D165
:102130003B2A02D1FFF7ECFD59E0702B0CD133495B
:1021400091F90110642907D13B2A05D13948FFF7DD
:10215000BDFAFFF7F1FD4AE0662B09D12B4991F951
:102160000110742904D13B2A02D1FFF791FD3EE012
:10217000662B09D1254991F90110722904D13B2A16
:1021800002D1FFF779FD32E0722B18D11F4991F986
:102190000110782913D13A2A11D11C4991F9041060
:1021A0003B290CD1194B93F90330312B03D101207A
:1021B000FFF742FC1BE00020FFF73EFC17E03B2A44
:1021C00015D113480370114B93F90130437000236C
:1021D000837000F049F9C0B2FFF7E6FB0E4C0246EF
:1021E0001549204600F052F92046FFF76FFA134BCD
:1021F0001B781E2B01D1FFF711FB1422002103488D
:1022000000F03CF970BD7047ED010020D0010020C6
:10221000C0010020C4010020140200206032000828
:10222000B00100203400002068320008703200083D
:10223000B90100207432000880320008E401002057
:1022400008B5054B1B6833B10022034B1A600348E5
:10225000FFF73CFAFEE708BDAC010020B0310008F2
:1022600010B582B0FFF718F9FFF79EFAFFF7ACF947
:10227000FFF784F94FF41640FFF7C0F9FFF7BEFDF2
:102280001A48FFF723FAFFF731FEFFF7ABFEFFF71F
:10229000D7FF174B1B78022B18D1FFF76FFDA8B1A2
:1022A0001448FFF713FAFFF77DFD78B1022101A86A
:1022B000FFF7CAFC104C9DF805309DF804200F492B
:1022C000204600F0E3F82046FFF700FA0C4B1B68AD
:1022D000002BD8D00A4B19681A684A401A60094B7B
:1022E0001B78002BCFD0FFF7CFFDCCE79032000852
:1022F000EE0100209C32000814020020A4320008E5
:10230000E8010020B9010020704700BFFEE700BFD0
:10231000FEE700BFFEE700BFFEE700BF704700BF5B
:10232000704700BF704700BF0D4B1B681BB10C4AC4
:102330001368013B13600B4B1B681BB1094A136800
:10234000013B1360084B1B681BB1013B064A13603D
:1023500070470122054B1A60054A034B1A6070470B
:10236000A8010020BC01002040000020E80100205E
:1023700040420F0008B516E00F4B9B885BB20F4A36
:102380001268312A07DC0D4A11680D48435413685E
:102390000133136007E033220021094800F06EF892
:1023A0000022064B1A6040F225510348FEF776FEE4
:1023B0000028E1D108BD00BF003801403C010020E9
:1023C0004001002008B571212048FEF7A9FC012832
:1023D0000ED101221E4B1A601E4A13780133DBB264
:1023E00013701378DBB21C4A13701378174A938169
:1023F00060211648FEF794FC01281DD10122144BE0
:102400001A60124B9B89DBB2124A1370134B1B6884
:10241000312B09DC114B19681278D2B210484254A2
:102420001A6801321A6007E0332200210C4800F0DC
:1024300025F80022094B1A6054210448FEF770FC6D
:1024400010B10122074B1A6008BD00BF00300140E7
:10245000CC010020B8010020C9010020100200209A
:1024600074010020AC0100200A22002100F0CEB847
:10247000014B1868704700BFA400002003460244C7
:10248000934202D003F8011BFAE770470EB400B57F
:102490004FF402719CB0ADF814106FF0004104913C
:1024A00007914FF6FF711DAB02900690084853F854
:1024B000042BADF81610006802A9019300F044F94E
:1024C000029B00221A701CB05DF804EB03B0704749
:1024D000A4000020C9B2034610F8012B1AB19142A2
:1024E000F9D11846704700290CBF184600207047E4
:1024F000034613F8012B002AFBD1181A0138704744
:102500002DE9F0470F4680463F48D0F800903D4601
:1025100015F8014B09EB0400407800F0080000F0CA
:10252000FF0608B12F46F2E72D2C03D1BD1C7C78A5
:10253000012603E02B2C04BF7C78BD1C13B1102BAB
:102540000AD15BE0302C57D1287800F0DF00582802
:102550004DD16C7810230235002E14BF4FF0004C83
:102560006FF0004CBCFBF3FA0027384603FB1ACC93
:1025700009EB040E9EF801E01EF0040F01D0303C80
:102580000BE01EF0030E1BD0BEF1010F0CBF4FF08D
:10259000370E4FF0570ECEEB0404A34210DDB7F117
:1025A000FF3F0AD0504506D801D1644503DC03FB48
:1025B0000040012701E04FF0FF3715F8014BD7E746
:1025C0007B1C0CD1002E4FF0220314BF4FF00040B3
:1025D0006FF00040C8F800302AB9BDE8F08706B1B6
:1025E000404272B107B1691E1160BDE8F087302426
:1025F000002BB1D10823AFE70A23ADE7302CA3D0DD
:10260000AAE7BDE8F08700BFA800002013460A46ED
:10261000014602480068FFF773BF00BFA400002016
:1026200030B5141E05469BB0184604DA8B232B6088
:102630004FF0FF301DE04FF40273ADF80C300CBFCB
:10264000234604F1FF33029305934FF6FF73009185
:102650000491ADF80E3002461E9B6946284600F0F4
:1026600073F8431CBCBF8B232B6014B1009B00226A
:102670001A701BB030BD000007B5009313460A4620
:10268000014603480068FFF7CBFF03B05DF804FB89
:10269000A40000202DE9F0478E6882469E420C4639
:1026A000914698463ED88A8912F4906F3AD02568B0
:1026B000096902236F1A656905EB450595FBF3F57A
:1026C0007B1C43449D4238BF1D4653050FD5294608
:1026D00000F042FB064698B13A46216900F0D2FA72
:1026E000A38923F4906343F08003A38113E02A4677
:1026F00000F086FB064670B92169504600F0E8FA02
:102700000C23CAF80030A3894FF0FF3043F0400398
:10271000A381BDE8F08726613E4426604646656198
:10272000ED1BA560464528BF46464946324620680F
:1027300000F0B3FAA36800209B1BA36023681E442B
:102740002660BDE8F08700002DE9F04F9DB00393AF
:102750008B8980461C060D4616460DD50B695BB964
:10276000402100F0F9FA2860286118B90C23C8F854
:102770000030CDE040236B610023099320238DF8C6
:102780002930DFF89CB130238DF82A3037463C469B
:1027900014F8013B1BB9B7EB060910D003E0252B59
:1027A000F9D02746F3E74B46324629464046FFF725
:1027B00071FF013000F0A780099B4B4409933B78DF
:1027C000002B00F0A08000234FF0FF32049307930A
:1027D000059206938DF853301A930126052221782D
:1027E0004E4800F041FA671C049B38B14B4A3C4606
:1027F000801A06FA00F018430490EFE7D90644BFA8
:1028000020228DF853201A0744BF2B228DF8532025
:1028100022782A2A03D0079A00210A200BE0039A83
:10282000111D12680391002A10DA524243F002008F
:10283000079204900BE027463B780134303B092B8C
:1028400003D800FB02320121F5E701B107923B7882
:102850002E2B1ED17B782A2B0AD1039B02371A1DFF
:102860001B680392002BB8BF4FF0FF33059310E0B5
:10287000002319460593781C0A2407463A7801304C
:10288000303A092A03D804FB01210123F5E703B1FB
:10289000059103223978224800F0E6F940B140233F
:1028A000CBEB000003FA00F0049B013718430490BF
:1028B000397806221B487E1C8DF8281000F0D4F9C8
:1028C00088B1194B33B9039B073323F0070308334F
:1028D000039314E003AB00932A46144B04A940462B
:1028E000AFF3008007E003AB00932A460F4B04A927
:1028F000404600F093F8B0F1FF3F824603D0099BB9
:102900005344099342E7AB895B0601D4099801E07F
:102910004FF0FF301DB0BDE8F08F00BFB3330008AB
:10292000B9330008BD3300080000000095260008F8
:102930002DE9F04791461F460A698B680646934287
:10294000B8BF1346C9F8003091F843200C46DDF8B3
:10295000208012B10133C9F800302368990642BFC4
:10296000D9F800300233C9F80030256815F00605A3
:1029700010D104F1190A07E00123524639463046C6
:10298000C04701301AD00135E368D9F800209B1AFE
:102990009D42F1DB94F843302268003318BF0123D5
:1029A00092060FD5E118302081F843005A1C94F8A4
:1029B00045102244023382F8431003E04FF0FF3009
:1029C000BDE8F08704F1430239463046C047013084
:1029D000F4D02268D9F80050E36802F00602042A15
:1029E00008BF5D1B2269A3680CBF25EAE5750025B9
:1029F0009342C4BF9B1AED184FF000091A344D459D
:102A000009D00123224639463046C0470130D5D08F
:102A100009F10109F3E70020BDE8F0872DE9F04353
:102A200017460A7E85B06E2A984606460C460C9BD1
:102A300001F1430E00F0AE8011D8632A22D009D8EC
:102A4000002A00F0BB80582A40F0CA8081F8452057
:102A5000834955E0642A1ED0692A1CD0C0E0732A3D
:102A600000F0B08009D86F2A2ED0702A40F0B880CC
:102A70000A6842F020020A603EE0752A24D0782AD3
:102A80003AD0ADE01A6801F14205111D19601368D2
:102A900084F84230A8E021681A6811F0800F02D053
:102AA000111D196008E011F0400F02F104011960D6
:102AB00002D0B2F9003000E01368002B3CDA2D227E
:102AC0005B4284F8432037E021681A6811F0800FD8
:102AD00002D0111D196007E011F0400F02F104014E
:102AE000196001D0138800E01368227E5C496F2AC8
:102AF00014BF0A2208221BE078225A4984F8452094
:102B00002268186812F0800F00F104051D6003D1DF
:102B1000550601D5038800E00368D00744BF42F0A2
:102B2000200222601BB9226822F0200222601022BB
:102B3000002084F8430001E049490A226568002D1D
:102B4000A56008DB206820F0040020602BB9002D70
:102B50007DD175460CE0002B79D07546B3FBF2F0C1
:102B600002FB1033CB5C05F8013D03460028F5D18C
:102B7000082A0BD12368DA0708D5236962689A42CC
:102B8000DEBF302305F8013C05F1FF35C5EB0E0330
:102B900023612EE008681A6810F0800F496903D09D
:102BA000101D1860136808E010F0400F02F10400D7
:102BB0001860136801D0198000E0196000232361B8
:102BC000754616E01A68111D1960156800216268C3
:102BD000284600F049F808B1401B6060636804E0D3
:102BE00004F1420584F8422001232361002384F884
:102BF0004330CDF800803B4603AA21463046FFF71C
:102C000097FE013002D14FF0FF3026E023692A46BB
:102C100039463046C0470130F5D023689B0710D5B0
:102C2000002504F1190907E001234A4639463046D8
:102C3000C0470130E7D00135E368039A9B1A9D42F3
:102C4000F2DBE068039B9842B8BF184605E00B78BA
:102C500004F1420584F842308AE705B0BDE8F0830C
:102C6000C4330008D533000810B5C9B202449042FD
:102C7000034605D01C7801308C42F8D1184610BDAF
:102C8000002010BD10B5431E0A44914204D011F833
:102C9000014B03F8014FF8E710BD884210B501EB76
:102CA000020301D8421E0BE09842FBD28118D21ACF
:102CB000D34204D013F8014D01F8014DF8E710BDDF
:102CC000994204D011F8014B02F8014FF8E710BD0A
:102CD00030B500293CD051F8042C0B1F1D49002AA7
:102CE000B8BF9B180A680C4612B95A600B6030BD19
:102CF0009A420DD919685818824201BF106852686B
:102D0000091819605A60236030BD994203D80A46F9
:102D100051680029F9D1146815199D420AD11B6820
:102D20002344D0188142136012D108680344136011
:102D30004B680CE002D90C23036030BD18681C18E6
:102D4000A14201BF0C6849680019186059605360BE
:102D500030BD00BF5402002070B5CD1C25F0030526
:102D600008350C2D38BF0C25002D064603DA0C2340
:102D70003360002070BDA942F9D81F4B1C681A4669
:102D80002146A1B10B685B1B0ED40B2B03D90B6042
:102D9000CC18CD501EE08C420BBF63684B681360AB
:102DA000636018BF0C4615E00C464968E9E7134C10
:102DB00023681BB9304600F049F8206029463046A8
:102DC00000F044F8431CD2D0C41C24F00304A042F9
:102DD0000AD1256004F10B00231D20F00700C31A5F
:102DE00009D05A42E25070BD211A304600F02EF848
:102DF0000130EED1BBE770BD54020020500200202C
:102E0000F8B5074615460E4621B91146BDE8F8400B
:102E1000FFF7A2BF1AB9FFF75BFF2846F8BD00F025
:102E200025F885420ED929463846FFF795FF044616
:102E300050B131462A46FFF725FF31463846FFF7A5
:102E400047FF01E03046F8BD2046F8BD38B5064CD6
:102E50000023054608462360FEF7ACF9431C02D167
:102E6000236803B12B6038BD5802002051F8040CD0
:102E70000028BEBF091851F8043CC0180438704738
:102E80002E2E2F73797374656D2F7372632F737485
:102E90006D333266312D7374647065726970682F9A
:102EA0006D6973632E6300002E2E2F737973746522
:102EB0006D2F7372632F73746D333266312D73749B
:102EC000647065726970682F73746D333266313067
:102ED000785F6164632E63002E2E2F73797374659F
:102EE0006D2F7372632F73746D333266312D73746B
:102EF000647065726970682F73746D333266313037
:102F0000785F6770696F2E63000000002E2E2F73AC
:102F1000797374656D2F7372632F73746D333266BA
:102F2000312D7374647065726970682F73746D33BA
:102F300032663130785F7263632E63002E2E2F73FA
:102F4000797374656D2F7372632F73746D3332668A
:102F5000312D7374647065726970682F73746D338A
:102F600032663130785F7370692E63002E2E2F73B6
:102F7000797374656D2F7372632F73746D3332665A
:102F8000312D7374647065726970682F73746D335A
:102F900032663130785F75736172742E63000000A1
:102FA00061626F727428292C2065786974696E6774
:102FB0002E2E2E002C2066756E6374696F6E3A207B
:102FC00000000000617373657274696F6E202225C2
:102FD0007322206661696C65643A2066696C6520BD
:102FE000222573222C206C696E65202564257325AB
:102FF000730A00006173736572745F706172616D52
:103000002829206661696C65643A2066696C6520D0
:10301000222573222C206C696E652025640A00002D
:103020006D61696E28617267633D25642C20617251
:1030300067763D5B000000002C20000022257322F3
:10304000000000005D293B0A00000000537461632A
:103050006B206672616D653A0A00000020523020D4
:103060003D2020253038580A000000002052312031
:103070003D2020253038580A000000002052322020
:103080003D2020253038580A00000000205233200F
:103090003D2020253038580A0000000020523132EF
:1030A000203D20253038580A00000000204C5220D6
:1030B0003D2020253038580A0000000020504320D1
:1030C0003D2020253038580A00000000205053527F
:1030D000203D20253038580A000000004653522F6A
:1030E0004641523A0A0000002043465352203D20F8
:1030F00020253038580A00002048465352203D20F1
:1031000020253038580A00002044465352203D20E4
:1031100020253038580A00002041465352203D20D7
:1031200020253038580A0000204D4D464152203DA0
:1031300020253038580A00002042464152203D20C8
:1031400020253038580A00004D6973630A000000DA
:10315000204C522F4558435F52455455524E3D2006
:10316000253038580A0000005B486172644661757A
:103170006C745D0A000000005B4275734661756CFB
:10318000745D0A005B55736167654661756C745DBB
:103190000A00000052656365697665643A200000A4
:1031A0005472616E736D69747465643A2000000036
:1031B000457272005472616E736D697474696E67E2
:1031C0003A200000526563656976696E673A2000AF
:1031D0002E2E2F7372632F6D61696E2E63707000D7
:1031E0006166746D6F64653A2564000072786D6F76
:1031F00064654F4E3A25640072786D6F64654F4682
:1032000046000000434F4E4649473A2025640000DF
:1032100073656E742100000025642000474F54310F
:1032200021000000474F5432210000005057525FE8
:1032300055503A202564000073656E743A2563206A
:1032400025630000443A2025642C20543A2025644C
:103250002C20563A2025642E253034640D0A0000B7
:10326000773A256400000000746573740000000064
:1032700052535400506F776572446F776E000000B0
:10328000723A256400000000693A20004200000004
:1032900048692C204D617374657221004952512098
:1032A00050696E0072783A2025632C202563000057
:1032B000430000202020202020202020282828280B
:1032C00028202020202020202020202020202020F6
:1032D0002020208810101010101010101010101046
:1032E0001010100404040404040404040410101056
:1032F0001010101041414141414101010101010102
:10330000010101010101010101010101010110108F
:1033100010101010424242424242020202020202D5
:103320000202020202020202020202020202101061
:10333000101020000000000000000000000000004D
:10334000000000000000000000000000000000007D
:10335000000000000000000000000000000000006D
:10336000000000000000000000000000000000005D
:10337000000000000000000000000000000000004D
:10338000000000000000000000000000000000003D
:10339000000000000000000000000000000000002D
:1033A000000000000000000000000000000000001D
:1033B000000000232D302B2000686C4C00656667F0
:1033C000454647003031323334353637383941429B
:1033D000434445460030313233343536373839616D
:0633E000626364656600F3
:1033E80078563412020406080000000001020304A3
:1033F8000102030406070809B800002000000000C5
:10340800000000000000000001020304060708098C
:1034180000A24A04B3B4B5B605FFFFFF4142FFFF5F
:1034280040420F0000000000000000000000000003
:103438000000000000000000000000000000000084
:1034480000000000B032000800000000000000008A
:103458000000000000000000000000000000000064
:103468000000000000000000000000000000000054
:103478000000000000000000000000000000000044
:103488000000000044000020B23200083254769850
:040000050800010DE1
:00000001FF
